:100000000EC027C026C025C024C023C022C021C0E6
:1000100020C01FC01EC01DC01CC01BC01AC01124A0
:100020001FBECFEDCDBF10E0A0E6B0E0EAE8F1E002
:1000300003C0C89531960D92A036B107D1F710E0F4
:10004000A0E6B0E001C01D92A036B107E1F736D0BE
:100050009BC0D6CF482F5527613051F427B381E09C
:1000600090E002C0880F991F4A95E2F7282B0AC03A
:1000700027B381E090E002C0880F991F4A95E2F70C
:100080008095282327BB0895482F5527613051F4C8
:1000900028B381E090E002C0880F991F4A95E2F7EB
:1000A000282B0AC028B381E090E002C0880F991F76
:1000B0004A95E2F78095282328BB0895CFEDD0E03C
:1000C000DEBFCDBF61E080E0C5DF61E081E0C2DF7F
:1000D00061E082E0BFDF61E083E0BCDF61E084E0FB
:1000E000B9DF61E080E0D0DF00E41CE9912F802FD0
:1000F0000197F1F760E080E0C7DF61E081E0C4DFF5
:10010000912F802F0197F1F760E081E0BDDF61E082
:1001100082E0BADF912F802F0197F1F760E082E053
:10012000B3DF61E083E0B0DF912F802F0197F1F71B
:1001300060E083E0A9DF61E084E0A6DF912F802FFB
:100140000197F1F760E084E09FDF61E083E09CDFEE
:10015000912F802F0197F1F760E083E095DF61E058
:1001600082E092DF912F802F0197F1F760E082E02B
:100170008BDF61E081E088DF912F802F0197F1F71D
:0A01800060E081E081DFADCFFFCF2A
:00000001FF
