:100000000EC027C026C025C024C023C022C021C0E6
:1000100020C01FC01EC01DC01CC01BC01AC01124A0
:100020001FBECFEDCDBF10E0A0E6B0E0E6E0F1E00E
:1000300003C0C89531960D92A036B107D1F710E0F4
:10004000A0E6B0E001C01D92A036B107E1F736D0BE
:1000500059C0D6CF482F5527613051F427B381E0DE
:1000600090E002C0880F991F4A95E2F7282B0AC03A
:1000700027B381E090E002C0880F991F4A95E2F70C
:100080008095282327BB0895482F5527613051F4C8
:1000900028B381E090E002C0880F991F4A95E2F7EB
:1000A000282B0AC028B381E090E002C0880F991F76
:1000B0004A95E2F78095282328BB0895CFEDD0E03C
:1000C000DEBFCDBF61E080E0C5DF61E080E0DCDF66
:1000D00020ED37E0E8ECF0E08E2F9F2F0197F1F74D
:1000E00021503040C9F760E080E0CEDF20ED37E0FE
:1000F000E8ECF0E08E2F9F2F0197F1F72150304070
:06010000C9F7E3CFFFCFB9
:00000001FF
