:100000000EC027C026C025C024C023C022C021C0E6
:1000100020C01FC01EC01DC01CC01BC01AC01124A0
:100020001FBECFEDCDBF10E0A0E6B0E0E0E4F2E00F
:1000300003C0C89531960D92A036B107D1F710E0F4
:10004000A0E6B0E001C01D92A036B107E1F736D0BE
:10005000F6C0D6CF482F5527613051F427B381E041
:1000600090E002C0880F991F4A95E2F7282B0AC03A
:1000700027B381E090E002C0880F991F4A95E2F70C
:100080008095282327BB0895482F5527613051F4C8
:1000900028B381E090E002C0880F991F4A95E2F7EB
:1000A000282B0AC028B381E090E002C0880F991F76
:1000B0004A95E2F78095282328BB0895CFEDD0E03C
:1000C000DEBFCDBF61E080E0C5DF61E081E0C2DF7F
:1000D00061E082E0BFDF61E083E0BCDF61E084E0FB
:1000E000B9DF61E085E0B6DF61E080E0CDDF28EEDA
:1000F00033E0E8ECF0E08E2F9F2F0197F1F72150CD
:100100003040C9F760E080E0BFDF61E081E0BCDF44
:1001100028EE33E0E8ECF0E08E2F9F2F0197F1F707
:1001200021503040C9F760E081E0AEDF61E082E05D
:10013000ABDF28EE33E0E8ECF0E08E2F9F2F019745
:10014000F1F721503040C9F760E082E09DDF61E0C7
:1001500083E09ADF28EE33E0E8ECF0E08E2F9F2F6B
:100160000197F1F721503040C9F760E083E08CDF60
:1001700061E084E089DF28EE33E0E8ECF0E08E2FE8
:100180009F2F0197F1F721503040C9F760E084E0DC
:100190007BDF61E085E078DF28EE33E0E8ECF0E03B
:1001A0008E2F9F2F0197F1F721503040C9F760E063
:1001B00085E06ADF61E084E067DF28EE33E0E8ECA9
:1001C000F0E08E2F9F2F0197F1F721503040C9F7B3
:1001D00060E084E059DF61E083E056DF28EE33E041
:1001E000E8ECF0E08E2F9F2F0197F1F7215030407F
:1001F000C9F760E083E048DF61E082E045DF28EE98
:1002000033E0E8ECF0E08E2F9F2F0197F1F72150BB
:100210003040C9F760E082E037DF61E081E034DF41
:1002200028EE33E0E8ECF0E08E2F9F2F0197F1F7F6
:1002300021503040C9F760E081E026DF55CFFFCF85
:00000001FF
